:100000000C942A000C943F000C943F000C943F0089
:100010000C943F000C943F000C943F000C943F0064
:100020000C943F000C943F000C943F000C943F0054
:100030000C943F000C943F000C943F000C943F0044
:100040000C943F000C943F000C943F000C943F0034
:100050000C943F0011241FBECFE5D4E0DEBFCDBF1E
:1000600011E0A0E6B0E0ECE0F4E102C005900D92F2
:10007000AC37B107D9F70E94E2080C94040A0C943B
:100080000000A0E2B0E0E7E4F0E00C94CD09698361
:100090007A838B839C832D833E834F835887CE0145
:1000A0000196BE01675F7F4F0E941D04CE01059639
:1000B000BE016F5E7F4F0E941D049985923088F0CB
:1000C00089898230C8F0943019F4823051F404C028
:1000D000843029F4923081F480E690E0C6C09230FA
:1000E00049F420E09A858A89981321E02A87CE0175
:1000F0000996BBC0823049F420E09A858A8998131A
:1001000021E02A8BCE014196B0C02D843E844F84DD
:1001100058886D887E888F88988CEE24FF2487010C
:10012000AA24BB24650140E050E060E070E0E0E01C
:10013000F0E0C10181709070892BE9F0E60CF71CAA
:10014000081D191D9A01AB012A0D3B1D4C1D5D1D9B
:1001500080E090E0A0E0B0E0E614F704080519059F
:1001600020F481E090E0A0E0B0E0BA01A901480FDE
:10017000591F6A1F7B1FAA0CBB1CCC1CDD1C97FEE1
:1001800008C081E090E0A0E0B0E0A82AB92ACA2A1D
:10019000DB2A3196E032F10549F0660C771C881CA9
:1001A000991C5694479437942794C3CFFA85EA89CB
:1001B0002B893C898B859C85280F391F2E5F3F4FEB
:1001C00017C0CA0181709070892B61F01695079550
:1001D000F794E79480E090E0A0E0B0E8E82AF92AFC
:1001E0000A2B1B2B76956795579547952F5F3F4FA9
:1001F00077FDE7CF0CC0440F551F661F771F17FD13
:100200004160EE0CFF1C001F111F21503040403098
:1002100090E0590790E0690790E4790760F32B8F2D
:100220003C8FDB01CA018F779070A070B070803472
:100230009105A105B10561F447FD0AC0E114F1047F
:100240000105110529F0405C5F4F6F4F7F4F4078EB
:100250001A8EFE1711F081E08A8F4D8F5E8F6F8F9F
:1002600078A383E0898FCE0149960E944803A09627
:10027000E2E10C94E909A8E1B0E0E1E4F1E00C94DA
:10028000D50969837A838B839C832D833E834F8337
:100290005887B9E0EB2EF12CEC0EFD1ECE01019635
:1002A000B7010E941D048E010F5E1F4FCE010596FF
:1002B000B8010E941D042985223008F47EC03989C6
:1002C000323010F4B8017CC08A859A8989278A87E0
:1002D000243011F0223031F4231709F06EC060E6AB
:1002E00070E06EC0343039F41D861E861F86188A71
:1002F0001C861B8604C0323021F484E08987B70154
:100300005FC02B853C858B899C89281B390B3C87DA
:100310002B87ED84FE840F851889AD88BE88CF8831
:10032000D88CEA14FB040C051D0540F4EE0CFF1CF0
:10033000001F111F215030403C872B8720E030E008
:1003400040E050E080E090E0A0E0B0E460E070E0E9
:10035000EA14FB040C051D0540F0282B392B4A2B11
:100360005B2BEA18FB080C091D09B695A795979514
:100370008795EE0CFF1C001F111F6F5F7F4F6F31C1
:10038000710531F7DA01C9018F779070A070B070F4
:1003900080349105A105B10561F427FD0AC0E1147F
:1003A000F1040105110529F0205C3F4F4F4F5F4FCD
:1003B00020782D873E874F87588BBE01675F7F4F20
:1003C000CB010E9448036896EAE00C94F109A8E189
:1003D000B0E0EDEEF1E00C94D90969837A838B8368
:1003E0009C832D833E834F83588789E0E82EF12C30
:1003F000EC0EFD1ECE010196B7010E941D048E0178
:100400000F5E1F4FCE010596B8010E941D0489851D
:10041000823040F08989823028F0C701B8010E94FB
:10042000950401C081E06896E6E00C94F509A8E126
:10043000B0E0EDE1F2E00C94D90969837A838B8313
:100440009C832D833E834F83588789E0E82EF12CCF
:10045000EC0EFD1ECE010196B7010E941D048E0117
:100460000F5E1F4FCE010596B8010E941D048985BD
:10047000823040F08989823028F0C701B8010E949B
:10048000950401C081E06896E6E00C94F509A8E0C7
:10049000B0E0EDE4F2E00C94D6099B01AC0183E0FE
:1004A0008983DA01C9018827B7FD83959927AA278F
:1004B000BB27B82E211531054105510519F482E0FD
:1004C00089833AC08823A9F0203080E0380780E093
:1004D000480780E8580729F460E070E080E09FEC6E
:1004E00030C0EE24FF248701E21AF30A040B150B37
:1004F00002C079018A018EE1C82ED12CDC82CB8228
:10050000ED82FE820F831887C801B7010E94F902AD
:1005100001971816190684F4082E04C0EE0CFF1C6F
:10052000001F111F0A94D2F7ED82FE820F831887F5
:10053000C81AD90ADC82CB82BA82CE0101960E9407
:1005400048032896E9E00C94F209ACE0B0E0EBEA4D
:10055000F2E00C94DD0969837A838B839C83CE015E
:100560000196BE016B5F7F4F0E941D048D8182301A
:1005700061F1823050F1843021F48E81882351F171
:100580002EC02F81388537FD20C06E812F31310577
:100590001CF06623F9F023C08EE190E0821B930BE0
:1005A00029853A854B855C8504C0569547953795D6
:1005B00027958A95D2F76623B1F0509540953095EE
:1005C00021953F4F4F4F5F4F0EC020E030E040E09D
:1005D00050E009C02FEF3FEF4FEF5FE704C020E08E
:1005E00030E040E050E8B901CA012C96E2E00C94FA
:1005F000F909EF92FF920F931F937B018C0180E02A
:10060000E81680E0F80681E0080780E0180788F423
:100610008FEFE816F1040105110531F028F088E0AC
:1006200090E0A0E0B0E017C080E090E0A0E0B0E093
:1006300012C080E0E81680E0F80680E0080781E05C
:10064000180728F088E190E0A0E0B0E004C080E165
:1006500090E0A0E0B0E020E230E040E050E0281B75
:10066000390B4A0B5B0B04C016950795F794E7947A
:100670008A95D2F7F701E859FF4F8081281B31098D
:1006800041095109C9011F910F91FF90EF90089501
:10069000DF92EF92FF920F931F93FC01E480F580AD
:1006A00006811781D1808081823048F480E090E01B
:1006B000A0E1B0E0E82AF92A0A2B1B2BA5C0843060
:1006C00009F49FC0823021F4EE24FF24870105C085
:1006D000E114F1040105110519F4E0E0F0E096C021
:1006E000628173819FEF623879070CF05BC022E86A
:1006F0003FEF261B370B2A3131052CF020E030E08C
:1007000040E050E02AC0B801A701022E04C076954F
:100710006795579547950A94D2F781E090E0A0E05D
:10072000B0E004C0880F991FAA1FBB1F2A95D2F7FB
:100730000197A109B1098E219F21A023B123009720
:10074000A105B10521F081E090E0A0E0B0E09A01C0
:10075000AB01282B392B4A2B5B2BDA01C9018F7790
:100760009070A070B07080349105A105B10539F486
:1007700027FF09C0205C3F4F4F4F5F4F04C0215CF3
:100780003F4F4F4F5F4FE0E0F0E02030A0E03A07EE
:10079000A0E04A07A0E45A0710F0E1E0F0E0790198
:1007A0008A0127C06038710564F5FB01E158FF4FED
:1007B000D801C7018F779070A070B0708034910518
:1007C000A105B10539F4E7FE0DC080E490E0A0E09A
:1007D000B0E004C08FE390E0A0E0B0E0E80EF91EC6
:1007E0000A1F1B1F17FF05C016950795F794E7947E
:1007F000319687E016950795F794E7948A95D1F797
:1008000005C0EE24FF248701EFEFF0E06E2F67951F
:1008100066276795902F9F77D794DD24D7948E2FE6
:100820008695492F462B582F5D29B701CA011F9184
:100830000F91FF90EF90DF900895FC01DB01408164
:1008400051812281622F6F7770E0221F2227221FA1
:100850009381892F880F822B282F30E0991F9927A9
:10086000991F11969C93119721153105A9F54115F2
:1008700051056105710511F482E037C082E89FEFF0
:1008800013969C938E9312979A01AB0167E0220F07
:10089000331F441F551F6A95D1F783E08C930DC019
:1008A000220F331F441F551F12968D919C91139751
:1008B000019713969C938E931297203080E038070F
:1008C00080E0480780E4580758F314962D933D9331
:1008D0004D935C93179708952F3F310579F4411597
:1008E00051056105710519F484E08C93089564FF46
:1008F00003C081E08C9312C01C9210C02F5730406F
:1009000013963C932E93129783E08C9387E0440FC9
:10091000551F661F771F8A95D1F7706414964D9303
:100920005D936D937C93179708951F93DC01FB01F2
:100930009C91923008F447C08081823008F443C013
:10094000943051F411961C91843099F58181682F6F
:1009500070E0611B71093FC0843021F0923031F4A6
:100960008230B9F18181882389F12DC011961C91C3
:1009700011978230F1F081811817D9F412962D91D8
:100980003C911397828193818217930794F02817E3
:100990003907BCF014968D919D910D90BC91A02DBE
:1009A0002481358146815781281739074A075B071B
:1009B00018F4112341F00AC082179307A407B50762
:1009C00040F4112319F061E070E005C06FEF7FEF94
:1009D00002C060E070E0CB011F9108954423D1F57F
:1009E0008130A1F0813030F08230E1F0833009F0C5
:1009F00067C024C02AB381E090E002C0880F991F2D
:100A00006A95E2F7809582238ABB089527B381E037
:100A100090E002C0880F991F6A95E2F780958223C3
:100A200087BB089524B381E090E002C0880F991F2E
:100A30006A95E2F78095822384BB089521B381E013
:100A400090E002C0880F991F6A95E2F78095822393
:100A500081BB08954130A1F5813091F0813028F0BB
:100A60008230C9F0833061F521C02AB381E090E083
:100A700002C0880F991F6A95E2F7282B2ABB0895B8
:100A800027B381E090E002C0880F991F6A95E2F7D2
:100A9000282B27BB089524B381E090E002C0880F83
:100AA000991F6A95E2F7282B24BB089521B381E0B2
:100AB00090E002C0880F991F6A95E2F7282B21BBAE
:100AC00008954423D1F58130A1F0813030F0823097
:100AD000E1F0833009F067C024C02BB381E090E0DF
:100AE00002C0880F991F6A95E2F7809582238BBB1D
:100AF000089528B381E090E002C0880F991F6A959D
:100B0000E2F78095822388BB089525B381E090E0C9
:100B100002C0880F991F6A95E2F78095822385BBF2
:100B2000089522B381E090E002C0880F991F6A9572
:100B3000E2F78095822382BB08954130A1F5813090
:100B400091F0813028F08230C9F0833061F521C006
:100B50002BB381E090E002C0880F991F6A95E2F7FD
:100B6000282B2BBB089528B381E090E002C0880FAA
:100B7000991F6A95E2F7282B28BB089525B381E0D9
:100B800090E002C0880F991F6A95E2F7282B25BBD9
:100B9000089522B381E090E002C0880F991F6A9502
:100BA000E2F7282B22BB0895FA01813049F0813009
:100BB00028F0823039F08330D1F40FC029B303C05C
:100BC00026B301C023B381E090E002C0880F991FD3
:100BD0006A95E2F728232083089520B381E090E00E
:100BE00002C0880F991F6A95E2F728232083089591
:100BF000662389F4813049F0813028F0823039F061
:100C00008330F9F406C01ABA089517BA089514BAD1
:100C1000089511BA08956130A1F4813051F0813006
:100C200028F0823049F0833061F409C08FEF8ABB2D
:100C300008958FEF87BB08958FEF84BB08958FEFE2
:100C400081BB0895813049F0813028F0823039F03D
:100C5000833041F406C06BBB089568BB089565BB43
:100C6000089562BB0895FB01813049F0813028F07E
:100C7000823039F0833051F407C089B303C086B3A2
:100C800001C083B38083089580B3808308951F9348
:100C9000182F81E060E041E00E94610581E061E0A1
:100CA00040E00E94610580E0612F0E94220681E001
:100CB00062E041E00E94610584EF91E00197F1F765
:100CC00081E062E040E00E9461051F9108952F924B
:100CD0003F924F925F926F927F928F929F92AF92CC
:100CE000BF92CF92DF92EF92FF920F931F93DF9309
:100CF000CF9300D000D0CDB7DEB77B018C0120E0D0
:100D000030E040E050E00E94E701882321F480E3D6
:100D10000E9447069AC0C801B70120E030E040E0D9
:100D200050E00E94170287FD03C01701280109C087
:100D30001701280157FA509457F850948DE20E94F9
:100D40004706C801B7010E94A5027B018C0181E022
:100D5000A82EB12CC12CD12C6624772443011BC0B2
:100D6000C801B7012AE030E040E050E00E94B2093B
:100D7000C901DA017C018D010894611C711C811C80
:100D8000911CC601B5012AE030E040E050E00E942D
:100D900071095B016C01E114F1040105110501F712
:100DA000C201B10120E030E44CE156E40E94410070
:100DB0000E94A5021B012C01C601B50128EE33E0FB
:100DC00040E050E00E9471095B016C0139C029824A
:100DD0003A824B825C82611471048104910419F49B
:100DE0008EE20E944706B101C201A60195010E9450
:100DF00090091B012C01C601B5012AE030E040E05A
:100E000050E00E949009122F032FF42EE52E089433
:100E1000610871088108910869817A818B819C81C0
:100E2000A60195010E949009822F805D0E944706CD
:100E3000212F302F4F2D5E2DC901DA015C016D018C
:100E4000A114B104C104D10411F60F900F900F90BA
:100E50000F90CF91DF911F910F91FF90EF90DF9056
:100E6000CF90BF90AF909F908F907F906F905F904A
:100E70004F903F902F9008956F927F928F929F9204
:100E8000AF92BF92CF92DF92EF92FF920F931F9398
:100E90007B018C01611571058105910521F480E3C9
:100EA0000E9447065DC097FD03C05B016C010AC04C
:100EB000AA24BB246501A61AB70AC80AD90A8DE27A
:100EC0000E94470691E0692E712C812C912CC8015B
:100ED000B7012AE030E040E050E00E94B209C901C9
:100EE000DA017C018D01C401B3012AE030E040E069
:100EF00050E00E9471093B014C01E114F10401052D
:100F0000110529F70E949009C901DA013C014D0140
:100F100022C0B501C601A40193010E949009122FBD
:100F2000B501C601A40193010E949009AC01CB0157
:100F3000DA015C016D01C401B3012AE030E040E058
:100F400050E00E949009C901DA013C014D01812F56
:100F5000805D0E9447066114710481049104C9F602
:100F60001F910F91FF90EF90DF90CF90BF90AF90C7
:100F70009F908F907F906F9008951F93CF93DF93F2
:100F8000EC0110E003C00E9447061F5FFE01E10F65
:100F9000F11D80818823B9F7DF91CF911F910895CA
:100FA0001F93182F81E060E040E00E94610581E01E
:100FB00061E040E00E94610580E0612F0E9422060E
:100FC00081E062E041E00E94610584EF91E00197D9
:100FD000F1F781E062E040E00E9461051F91089511
:100FE00081E00E94D00784EC99E00197F1F7089521
:100FF000813051F0813048F0823021F0833021F08F
:1010000060E003C0605F01C0605C862F80680E9462
:10101000D00708950F931F938A010E94F807C80113
:101020000E94BD071F910F91089580E061E00E942A
:10103000F80581E060E041E00E94EE0481E061E0BB
:1010400041E00E94EE0481E062E041E00E94EE0493
:1010500080E197E20197F1F788E30E94D0078CE0E6
:101060000E94D00781E00E94D007089583E062E0EB
:1010700041E00E94EE0483E063E041E00E94EE0460
:1010800083E064E041E00E94EE0483E065E041E03B
:101090000E94EE0481E064E040E00E94EE0481E002
:1010A00065E040E00E94EE0481E066E040E00E94DE
:1010B000EE0481E067E040E00E94EE0483E06CE330
:1010C0000E94220681E060EF0E9422060895CF92DE
:1010D000DF92EF92FF920F931F93DF93CF930F92C4
:1010E000CDB7DEB700E010E07E010894E11CF11CF2
:1010F000F801E859FE4FC08083E06C2D40E00E946B
:10110000610544E0D42E81E064E0A7010E94D4058B
:101110008981882319F4E0E0F0E026C035E0D32E81
:1011200081E065E0A7010E94D4058981882319F434
:10113000E1E0F0E019C026E0D22E81E066E0A701F0
:101140000E94D4058981882319F4E2E0F0E00CC004
:1011500097E0D92E81E067E0A7010E94D40589813C
:101160008823C9F4E3E0F0E0EE0FFF1FEE0FFF1F4E
:10117000E00FF11FE459FE4F10817E010894E11C3D
:10118000F11C05C081E06D2DA7010E94D405898165
:101190008823C1F30CC083E06C2D41E00E946105FF
:1011A0000F5F1F4F0430110509F0A2CF1FEF812FF1
:1011B0000F90CF91DF911F910F91FF90EF90DF90F3
:1011C000CF9008955F926F927F928F929F92AF928D
:1011D000BF92CF92DF92EF92FF920F931F930E94E4
:1011E00015080E9436085524AA24BB2465016624EC
:1011F000772443010E946708182F8F3FD9F380534B
:101200008A30C0F4812F0E944706C601B5012AE04A
:1012100030E040E050E00E947109212F30E020537F
:1012200030405901CC24B7FCC094DC2CA60EB71E6C
:10123000C81ED91E1B3231F01D3221F01A3211F0B6
:101240001F3249F4812F0E944706512E3501460175
:10125000AA24BB2465011D33F1F58DE30E944706E6
:101260008BE2581671F0851520F08AE2581611F6B7
:1012700018C08DE2581661F08FE2581609F0BACF07
:1012800017C0C401B3016A0D7B1D8C1D9D1D06C0D6
:10129000C401B3016A197B098C099D090E943C07AE
:1012A000A9CFC401B301A60195010E947109F6CF2F
:1012B000C401B3010E9447027B018C01C601B50144
:1012C0000E9447029B01AC01C801B7010E943B018B
:1012D0000E9467068FCF133609F08CCF0E94F0076B
:1012E00083CF629FD001739FF001829FE00DF11DBB
:1012F000649FE00DF11D929FF00D839FF00D749F90
:10130000F00D659FF00D9927729FB00DE11DF91F3B
:10131000639FB00DE11DF91FBD01CF011124089598
:10132000A1E21A2EAA1BBB1BFD010DC0AA1FBB1FE9
:10133000EE1FFF1FA217B307E407F50720F0A21B5B
:10134000B30BE40BF50B661F771F881F991F1A94C8
:1013500069F760957095809590959B01AC01BD01F2
:10136000CF01089597FB092E05260ED057FD04D016
:10137000D7DF0AD0001C38F4509540953095219560
:101380003F4F4F4F5F4F0895F6F7909580957095BA
:1013900061957F4F8F4F9F4F08952F923F924F92AD
:1013A0005F926F927F928F929F92AF92BF92CF92F5
:1013B000DF92EF92FF920F931F93CF93DF93CDB7FE
:1013C000DEB7CA1BDB0B0FB6F894DEBF0FBECDBF76
:1013D00009942A88398848885F846E847D848C8447
:1013E0009B84AA84B984C884DF80EE80FD800C8150
:1013F0001B81AA81B981CE0FD11D0FB6F894DEBF33
:0C1400000FBECDBFED010895F894FFCFA2
:10140C0000000000000000000001020203030303BF
:10141C000404040404040404050505050505050578
:10142C000505050505050505060606060606060658
:10143C000606060606060606060606060606060640
:10144C000606060606060606070707070707070728
:10145C000707070707070707070707070707070710
:10146C000707070707070707070707070707070700
:10147C0007070707070707070707070707070707F0
:10148C0007070707070707070808080808080808D8
:10149C0008080808080808080808080808080808C0
:1014AC0008080808080808080808080808080808B0
:1014BC0008080808080808080808080808080808A0
:1014CC000808080808080808080808080808080890
:1014DC000808080808080808080808080808080880
:1014EC000808080808080808080808080808080870
:1014FC000808080808080808080808080808080860
:10150C000808080808080808020304053738392FAA
:0C151C003435362A3132332D63303D2B3C
:00000001FF
